:020000040000FA
:0400000007EF00F016
:100008000182019211006EEF00F0010E0001616F94
:10001800000E0001626F5FEC00F0000E0001646FDB
:10002800000E636F000164BF23EF00F0645109E123
:10003800060E635DD8A023EF00F025EF00F027EF50
:1000480000F044EF00F08370620E0001606F650EEF
:10005800E82EFED7602FFCD700F000F00001634BBC
:10006800642B000164BF42EF00F0645109E1060E01
:10007800635DD8A042EF00F044EF00F027EF00F0F6
:1000880061C0ADFF0001612BA30E0001606F550E2A
:10009800E82EFED7602FFCD79EAA55EF00F057EF49
:1000A80000F044EF00F0AECF62F062C083FF44EF8F
:1000B80000F007EF00F0000E956E190EAF6EAC84DD
:1000C800B886948C948EAC8AAC9CAB8EAC98AB887A
:0E00D800AB9C120001900192000109EF00F0B4
:020000040020DA
:08000000FFFFFFFFFFFFFFFF00
:020000040030CA
:0E000000FF081F1EFF8B81FF0FC00FE00F4097
:00000001FF
