:020000040000FA
:0400000013EF00F00A
:06000800018215EF00F07B
:100018000180E0CF6CF06CC0E0FF019010005EEF53
:1000280000F0F2A41AEF00F01CEF00F022EF00F04D
:10003800F294C20ED76EF60ED66E83709EA027EF8E
:1000480000F029EF00F03BEF00F000016A2B83CFAE
:100058006BF00F0E00016B1700016A39F00B0001FD
:100068006B11836E9E903C0ECF6EB00ECE6E0192D9
:100078001100000E956E000E7F6E9380D58ED59C74
:10008800D59AD596D550F80B0309D56EC20ED76E02
:10009800F60ED66ECD8ECF0ECD16CD92CD803C0EFF
:1000A800CF6EB00ECE6E9E909D80F28AF294F28C46
:1000B800F28E120000EE60F00B0EEE6AE806FDE12B
:1000C80001900192000169EF00F03DEC00F0C10ED3
:0A00D800836E6DEF00F013EF00F0EF
:020000040020DA
:08000000FFFFFFFFFFFFFFFF00
:020000040030CA
:0E000000FF081F1EFF8B81FF0FC00FE00F4097
:00000001FF
