:020000040000FA
:0400000027EF3FF0B7
:107E4E00000157EF3FF0000160516203F3CF64F081
:107E5E00F4CF65F060516303F350652761516203FF
:107E6E00F350652764C060F065C061F01200938026
:107E7E00000E7F6E94827C0ECB6E0F0EBA120C0E1D
:107E8E00BB6ECF0EBA169E92FC0ECA16CA849EA266
:107E9E0053EF3FF055EF3FF04EEF3FF0949212004C
:107EAE00000E00016F6F0A0E6E6F3EEC3FF081B058
:107EBE0063EF3FF065EF3FF080EF3FF081A06AEF98
:107ECE003FF06CEF3FF065EF3FF00A0E00016E27BA
:107EDE00000E6F23640E6E196F11D8A479EF3FF068
:107EEE007BEF3FF080EF3FF0000E00016F6F0A0E48
:107EFE006E6F6EC060F06FC061F0000E0001636FB8
:107F0E007C0E626F2AEC3FF060C066F061C067F0D5
:107F1E00000E0001696F640E686F9DEC3FF000016A
:107F2E006651BB6E5EEF3FF000EF00F0000E0001F9
:107F3E006B6F69BFA7EF3FF0A5EF3FF0ADEF3FF0DE
:107F4E00686D691FD8B0692B010E6B6F67BFB4EFF8
:107F5E003FF0B2EF3FF0BAEF3FF0666D671FD8B05B
:107F6E00672B010E6B1B000E6D6F000E6C6F685150
:107F7E006911D8B4C5EF3FF0C7EF3FF0EFEF3FF018
:107F8E00010E6A6FCFEF3FF0D890683769376A2BD2
:107F9E0069AFD4EF3FF0D6EF3FF0CBEF3FF0D89084
:107FAE006C376D376851665D69516759D8A0E2EF3D
:107FBE003FF0E4EF3FF0E9EF3FF06851665F695143
:107FCE00675B6C81D890693368336A2FD6EF3FF0C8
:107FDE006B51D8B4F5EF3FF0F7EF3FF0FBEF3FF00A
:107FEE006C6D6D1FD8B06D2B6CC066F06DC067F0F8
:027FFE0012006F
:020000040020DA
:08000000FFFFFFFFFFFFFFFF00
:020000040030CA
:0E000000FF081F1EFF8B81FF0FC00FE00F4097
:00000001FF
