:020000040000FA
:0400000014EF00F009
:1000080001829EAC0AEF00F00CEF00F012EF00F056
:10001800C4CF68F00001696B9E9CC28201921100F6
:1000280039EF00F09482F90ECB6E0F0EBA12800EE3
:10003800BB6ECF0EBA169E92030ECA12CA849EA237
:1000480028EF00F02AEF00F023EF00F0949212005E
:1000580092807E90C280C19AC198C09E380EC0120C
:10006800C050F80B0609C06E120000EE60F00A0ED0
:10007800EE6AE806FDE101900192000144EF00F00C
:1000880095684DEC00F068C0BBFF47EF00F014EF37
:1000980000F02CEC00F056EC00F016EC00F05AECF6
:1000A80000F012009E9C9D8CC2821200F28CF28E8F
:0200B800120034
:020000040020DA
:08000000FFFFFFFFFFFFFFFF00
:020000040030CA
:0E000000FF081F1EFF8B81FF0FC00FE00F4097
:00000001FF
