:020000040000FA
:0400000013EF00F00A
:1000080001829EAA0AEF00F00CEF00F011EF00F059
:100018009E9AAECF62F062C083FF0192110071EF29
:0200280003F0E3
:0906000000427261766F210000D6
:10060A00000E0001616F000E606F61EC03F09EA89E
:10061A0011EF03F013EF03F00CEF03F0470EAD6E8A
:10062A009EA81AEF03F01CEF03F015EF03F04F0E2C
:10063A00AD6E410E00016219D8A426EF03F028EF2F
:10064A0003F01EEF03F0000E0001616F000E606FF1
:10065A0046EF03F09EA834EF03F036EF03F02FEFD6
:10066A0003F0010E00016025F66E060E6121F76E99
:10067A00F86A000EF8220800F5CFADFF0001604BC2
:10068A00612B010E00016025F66E060E6121F76EE0
:10069A00F86A000EF8220800F5500009D8A458EFAD
:1006AA0003F05AEF03F02FEF03F0000E0001626F20
:1006BA001EEF03F013EF00F0000E956E190EAF6EE9
:1006CA00AC84B886948C948EAC8AAB8EAC98AB888A
:1006DA009D8AF28CF28E12000001626B01900192E7
:0606EA00000105EF03F022
:020000040020DA
:08000000FFFFFFFFFFFFFFFF00
:020000040030CA
:0E000000FF081F1EFF8B81FF0FC00FE00F4097
:00000001FF
