:020000040000FA
:040000001DEF00F000
:100008000182F2A40AEF00F00CEF00F01BEF00F001
:10001800F29483068350D8A414EF00F016EF00F092
:1000280017EF00F0D59EF30ED76ECB0ED66E019269
:1000380011005DEF00F045EC00F081B026EF00F014
:1000480028EF00F030EF00F081A02DEF00F02FEF47
:1000580000F028EF00F0D58E8350D8A436EF00F0DA
:1000680038EF00F021EF00F0831EA30E0001606F4F
:10007800550EE82EFED7602FFCD738EF00F01DEFA5
:1000880000F09380000E7F6E000E956E7F0E836EDB
:10009800D59CD59AD596D550F80B0109D56EF30E97
:1000A800D76ECB0ED66EF28AF294D59EF28CF28E73
:0C00B80012000190019200011FEF00F007
:020000040020DA
:08000000FFFFFFFFFFFFFFFF00
:020000040030CA
:0E000000FF081F1EFF8B81FF0FC00FE00F4097
:00000001FF
