:020000040000FA
:0600000000F015EF00F016
:08000800FFFF018231EF08F057
:10001800FFFF0180E0CF66F066C0E0FF01901000AE
:06002800FFFF35EF0EF0B2
:10060000004C61623420536F6E6172203230313998
:100610000044697374616E6365203D202564006D3C
:030620006D00006A
:10062400FFFF84C09CF085C09DF086C09EF087C00B
:100634009FF088C0A0F089C0A1F08AC0A2F08BC04E
:10064400A3F00001A3BF29EF03F02DEF03F0FFFF98
:10065400010E2FEF03F0FFFF000EFFFF00019A6F62
:100664009B6B9A519B11D8B43AEF03F03DEF03F022
:10067400FFFF4FEF03F0FFFF0001A31FA21FA11F05
:10068400A01F9F1F9E1F9D1F9C6D000E9D239E23D8
:100694009F23A023A123A223A323FFFF0001EBBFD9
:1006A40056EF03F059EF03F0FFFF5CEF03F0FFFF99
:1006B4000001EC93FFFF0001EBBF6CEF03F0EB5183
:1006C40006E1EA05D8B069EF03F06CEF03F0FFFF31
:1006D40074EF03F0FFFF000E0001976F010E966F99
:1006E40079EF03F0FFFFEAC096F0EBC097F0FFFF4D
:1006F400E8C098F0E9C099F000019A519B11D8A480
:1007040086EF03F089EF03F0FFFF93EF03F0FFFFA1
:100714000001ECA590EF03F093EF03F0FFFF98EFD7
:1007240003F0FFFF00019807D8A09907FFFF000E10
:100734000001A56F1F0EA46F540E0001A425D96EED
:10074400010EA521DA6E000EDF6E2DEF04F0FFFF1F
:100754000001A407D8A0A507540E0001A425D96E52
:10076400010EA521DA6E9CC067F09DC068F09EC0A2
:1007740069F09FC06AF0A0C06BF0A1C06CF0A2C089
:100784006DF0A3C06EF00A0E00016F6F000E706F63
:10079400000E716F000E726F000E736F000E746F97
:1007A400000E756F000E766FA8EC06F067C08CF033
:1007B40068C08DF069C08EF06AC08FF06BC090F095
:1007C4006CC091F06DC092F06EC093F08CC079F063
:1007D4008EC07AF0EBEC0DF000017951300FDF6E32
:1007E40000019607D8A0970700019807D8A0990799
:1007F4009CC067F09DC068F09EC069F09FC06AF01D
:10080400A0C06BF0A1C06CF0A2C06DF0A3C06EF0EC
:100814000A0E00016F6F000E706F000E716F000EF4
:10082400726F000E736F000E746F000E756F000E02
:10083400766FCDEC05F067C09CF068C09DF069C090
:100844009EF06AC09FF06BC0A0F06CC0A1F06DC0B8
:10085400A2F06EC0A3F0FFFF0001A5BF3AEF04F0C1
:10086400A55109E1A405D8A03AEF04F03DEF04F046
:10087400FFFF79EF04F0FFFF00019C519D119E11D1
:100884009F11A011A111A211A311D8A44CEF04F03F
:100894004FEF04F0FFFFA9EF03F0FFFF000197BF44
:1008A4005FEF04F0975106E19605D8B05CEF04F0D1
:1008B4005FEF04F0FFFFA9EF03F0FFFF000199BF12
:1008C4006CEF04F0995109E19805D8A06CEF04F09D
:1008D4006FEF04F0FFFF79EF04F0FFFF0001ECB3CA
:1008E40076EF04F079EF04F0FFFFA9EF03F0FFFFC8
:1008F40000019A519B11D8A482EF04F085EF04F013
:10090400FFFF8FEF04F0FFFF0001ECA58CEF04F074
:100914008FEF04F0FFFFB7EF04F0FFFF0001A4071F
:10092400D8A0A50700019A519B11D8A49CEF04F00C
:100934009FEF04F0FFFFA7EF04F0FFFF000E00019C
:10094400956F2B0E946FADEF04F0FFFF000E0001C6
:10095400956F2D0E946FFFFF540E0001A425D96EE0
:10096400010EA521DA6E94C0DFFFFFFF82C077F08D
:1009740083C078F0540E0001A4250001796F010EA4
:100984000001A52100017A6F98C07BF099C07CF02A
:10099400F0EC08F077C082F078C083F01200FFFF1B
:1009A400FFFFA8C0D9FFA9C0DAFFDECFF6FFDDCF75
:1009B400F7FFF86A0800FFFFF550250AD8A4E5EF11
:1009C40004F0E8EF04F0FFFFA8EF05F0FFFFA8C074
:1009D400D9FFA9C0DAFFDE2A000EDD22000E0001D5
:1009E400E96F000EE86FE8C0ECF0E9C0EDF000013B
:1009F400EA69EB69A8C0D9FFA9C0DAFFDECFF6FF28
:100A0400DDCFF7FFF86A0800FFFFF550640AD8B499
:100A14000EEF05F011EF05F0FFFF27EF05F0FFFFE4
:100A2400A8C0D9FFA9C0DAFFDECFF6FFDDCFF7FFFC
:100A3400F86A0800FFFFF550690AD8A424EF05F00E
:100A440027EF05F0FFFF69EF05F0FFFFA8C0D9FF0E
:100A5400A9C0DAFFDE2A000EDD22AAC0D9FFABC08E
:100A6400DAFFDFCFACF0020EDE26DFCFADF0000EF2
:100A7400DD22ACC0D9FFADC0DAFFDECFAEF0DDCFF2
:100A8400AFF00001000EAFBFFF0EB06FB16FB26FD9
:100A9400B36FB46FB56FA6C082F0A7C083F0AEC0C9
:100AA40084F0AFC085F0B0C086F0B1C087F0B2C0AA
:100AB40088F0B3C089F0B4C08AF0B5C08BF012ECF2
:100AC40003F082C0A6F083C0A7F0CAEF05F0FFFFD1
:100AD400A8C0D9FFA9C0DAFFDECFF6FFDDCFF7FF4C
:100AE400F86A0800FFFFF550250AD8A47CEF05F04A
:100AF4007FEF05F0FFFF99EF05F0FFFFA8C0D9FFD6
:100B0400A9C0DAFFDE2A000EDD22000E0001686FA4
:100B1400250E676FA6C069F0A7C06AF0ECEC09F077
:100B2400000E0001A76F010EA66FCAEF05F0FFFFCC
:100B3400A8C0D9FFA9C0DAFFDE2A000EDD22000E0C
:100B44000001A76F000EA66FCAEF05F0FFFFA8C053
:100B5400D9FFA9C0DAFFDECFF6FFDDCFF7FFF86AD1
:100B64000800FFFFF5500001676F686BA6C069F0CD
:100B7400A7C06AF0ECEC09F0A8C0D9FFA9C0DAFF5D
:100B8400DE2A000EDD22000E0001A76F010EA66F03
:100B9400FFFF1200FFFFFFFF000E0001786F76BF1A
:100BA400D9EF05F0D6EF05F0FFFFECEF05F0FFFFFE
:100BB400761F751F741F731F721F711F701F6F6D57
:100BC400000E7023712372237323742375237623F9
:100BD400010E786FFFFF6EBFF5EF05F0F2EF05F041
:100BE400FFFF08EF06F0FFFF6E1F6D1F6C1F6B1FEA
:100BF4006A1F691F681F676D000E682369236A23D3
:100C04006B236C236D236E23010E781BFFFF20EEF4
:100C140079F0070EDE6AE806FDE26F51701171117A
:100C240072117311741175117611D8B41CEF06F09A
:100C34001FEF06F0FFFF7AEF06F0FFFF010E776F5C
:100C44002FEF06F0FFFFD8906F3770377137723788
:100C54007337743775377637772BFFFF76AF35EFF9
:100C640006F038EF06F0FFFF24EF06F0FFFFFFFF6A
:100C7400D89079377A377B377C377D377E377F3723
:100C840080376F51675D705168597151695972515C
:100C94006A5973516B5974516C5975516D59765128
:100CA4006E59D8A058EF06F05BEF06F0FFFF6DEF2A
:100CB40006F0FFFF6F51675F7051685B7151695BAC
:100CC40072516A5B73516B5B74516C5B75516D5BF4
:100CD40076516E5B7981FFFFD89076337533743328
:100CE40073337233713370336F33772F39EF06F008
:100CF400FFFF7851D8B481EF06F084EF06F0FFFFD0
:100D040095EF06F0FFFF801F7F1F7E1F7D1F7C1F56
:100D14007B1F7A1F796D000E7A237B237C237D232E
:100D24007E237F238023FFFF79C067F07AC068F0B9
:100D34007BC069F07CC06AF07DC06BF07EC06CF053
:100D44007FC06DF080C06EF01200FFFFFFFF000E49
:100D54000001786F6EBFB4EF06F0B1EF06F0FFFF4D
:100D6400C7EF06F0FFFF6E1F6D1F6C1F6B1F6A1F1E
:100D7400691F681F676D000E682369236A236B234C
:100D84006C236D236E23010E786FFFFF76BFD0EFC7
:100D940006F0CDEF06F0FFFFE1EF06F0FFFF761F50
:100DA400751F741F731F721F711F701F6F6D000EEC
:100DB4007023712372237323742375237623FFFF17
:100DC4006F517011711172117311741175117611C3
:100DD400D8B4EFEF06F0F2EF06F0FFFF43EF07F0B1
:100DE400FFFF010E776F02EF07F0FFFFD8906F3718
:100DF4007037713772377337743775377637772BA7
:100E0400FFFF76AF08EF07F00BEF07F0FFFFF7EFF8
:100E140006F0FFFFFFFF6F51675D70516859715114
:100E2400695972516A5973516B5974516C5975519E
:100E34006D5976516E59D8A022EF07F025EF07F0CF
:100E4400FFFF36EF07F0FFFF6F51675F7051685B7C
:100E54007151695B72516A5B73516B5B74516C5B6A
:100E640075516D5B76516E5BFFFFD89076337533A9
:100E7400743373337233713370336F33772F0CEFF2
:100E840007F0FFFF7851D8B44AEF07F04DEF07F0B1
:100E9400FFFF5EEF07F0FFFF6E1F6D1F6C1F6B1FE0
:100EA4006A1F691F681F676D000E682369236A2320
:100EB4006B236C236D236E23FFFF67C067F068C04C
:100EC40068F069C069F06AC06AF06BC06BF06CC00E
:100ED4006CF06DC06DF06EC06EF01200FFFFFFFF8E
:100EE40003EC0CF094EC0EF08290839E8292010E3F
:100EF40000016F6F060E706F6F517011D8A4000E51
:100F0400716F62EC0AF0FFFF0001F1BF93EF07F08D
:100F1400F1510AE10A0EF05DD8A093EF07F096EFC5
:100F240007F0FFFF85EF07F0FFFF000E0001E36FFE
:100F3400000EE26F000E0001E56F000EE46F000189
:100F4400E5BFAEEF07F0E5510AE10A0EE45DD8A073
:100F5400AEEF07F0B1EF07F0FFFFB4EF07F0FFFFCC
:100F6400E8EF07F0FFFFD8900001E435D96EE535CE
:100F7400DA6E400ED926010EDA22DECF67F0DDCF1D
:100F840068F0000E00016A6F030E696FBBEC0BF092
:100F94000001E251000167250001E26FE351000105
:100FA40068210001E36F0001E44BE52B0001E5BF7C
:100FB400E5EF07F0E5510AE10A0EE45DD8A0E5EF9C
:100FC40007F0E8EF07F0FFFFB4EF07F0FFFFCE0EE6
:100FD4000001BE6F000EBF6F110E0001C06F060E40
:100FE400C16FE2C067F0E3C068F0000E00016A6FF1
:100FF4000A0E696F73EC09F067C0C2F068C0C3F0F1
:1010040030EC0DF0C5EC0EF0020E00016B6F010E1A
:101014006FEC0BF0020EADEC0EF0CE0E00016F6F14
:10102400000E706F6F517011D8A4200E716F62ECB6
:101034000AF0020E00016B6F110E6FEC0BF01F0E25
:1010440000016F6F060E706F6F517011D8A4000EFF
:10105400716F62EC0AF085EF07F015EF00F0FFFF07
:10106400D9CF62F0DACF63F0F2A43BEF08F03EEFA1
:1010740008F0FFFF81EF08F0FFFF8282000E0001FD
:10108400656F000E646F000165BF52EF08F0655193
:101094000AE1020E645DD8A052EF08F055EF08F0A3
:1010A400FFFF58EF08F0FFFF6DEF08F0FFFF00F0BF
:1010B4000001644B652B000165BF6AEF08F06551C0
:1010C4000AE1020E645DD8A06AEF08F06DEF08F043
:1010D400FFFF58EF08F0FFFF8292BD50F00B0509A7
:1010E400BD6E000EB36E000EB26EB180F294F70EB8
:1010F400D76E7F0ED66E150ED76EA00ED66EFFFF7E
:101104009EA087EF08F08AEF08F0FFFF91EF08F048
:10111400FFFF837E9E903C0ECF6EB00ECE6EFFFF1F
:101124009EA497EF08F09AEF08F0FFFFE8EF08F0AD
:10113400FFFFBD500F0B050AD8A4A3EF08F0A6EFDC
:1011440008F0FFFFB2EF08F0FFFF8280BECFEEF0A1
:10115400BFCFEFF0BD50F00B0409BD6EE6EF08F011
:10116400FFFF0001EE51BE5C0001606F0001EF5112
:10117400BF580001616FD8900001F035D96EF13588
:10118400DA6E400ED926010EDA2260C0DEFF61C09D
:10119400DDFF0001F04BF12B0001F1BFDBEF08F0A4
:1011A400F1510AE10B0EF05DD8A0DBEF08F0DEEFA1
:1011B40008F0FFFFE4EF08F0FFFF000E0001F16FFD
:1011C400000EF06FFFFF8290FFFF9E94FFFF63C04D
:1011D400DAFF62C0D9FF01921100FFFFFFFF000197
:1011E400ECA1F7EF08F0FAEF08F0FFFF05EF09F0C4
:1011F400FFFF79C070F07AC071F077C072F078C0E8
:1012040073F063EC0DF0FFFF00017CBF0CEF09F0FD
:101214000FEF09F0FFFF16EF09F0FFFF7BC080F02E
:101224007CC081F01CEF09F0FFFF000E0001816F0C
:10123400000E806FFFFF000E00017F6F000E7E6FB7
:1012440033EF09F0FFFF000E0001686F200E676F97
:1012540077C069F078C06AF0ECEC09F000017E4BCD
:101264007F2BFFFF0001805100017E5D7F51800ACA
:1012740000017D6F00018151800A00017D59D8A0D1
:1012840046EF09F049EF09F0FFFF24EF09F0FFFFF3
:101294000001ECB150EF09F053EF09F0FFFF5EEFEE
:1012A40009F0FFFF79C070F07AC071F077C072F076
:1012B40078C073F063EC0DF0FFFF79C067F07AC07B
:1012C40068F012EC0EF00001805100016725000166
:1012D400776F00018151000168210001786F1200CD
:1012E400FFFFFFFF000E00016C6F6ABF7FEF09F084
:1012F4007CEF09F0FFFF86EF09F0FFFF696D6A1FBD
:10130400D8B06A2B010E6C6FFFFF68BF8FEF09F036
:101314008CEF09F0FFFF96EF09F0FFFF676D681F80
:10132400D8B0682B010E6C1BFFFF000E6E6F000E11
:101334006D6F69516A11D8B4A2EF09F0A5EF09F0F5
:10134400FFFFD6EF09F0FFFF010E6B6FAFEF09F05F
:10135400FFFFD89069376A376B2BFFFF6AAFB5EF91
:1013640009F0B8EF09F0FFFFAAEF09F0FFFFFFFF54
:10137400D8906D376E376951675D6A516859D8A046
:10138400C6EF09F0C9EF09F0FFFFCFEF09F0FFFF47
:101394006951675F6A51685B6D81FFFFD8906A335A
:1013A40069336B2FB9EF09F0FFFF6C51D8B4DDEF4F
:1013B40009F0E0EF09F0FFFFE5EF09F0FFFF6D6DC5
:1013C4006E1FD8B06E2BFFFF6DC067F06EC068F063
:1013D4001200FFFFFFFF000169516A11D8B4F5EF55
:1013E40009F0F8EF09F0FFFF03EF0AF0FFFF69517E
:1013F4006A11D8A400EF0AF003EF0AF0FFFF09EF27
:101404000AF0FFFF6751D6EC0EF05BEF0AF0FFFF26
:1014140020EE04F06951D9266A51DA22DE50DE103A
:10142400D8B417EF0AF01AEF0AF0FFFF37EF0AF00B
:10143400FFFF20EE04F06951D9266A51DA2210EE3A
:1014440002F06951E1266A51E222DE50E65CE65080
:10145400800A6F6FDE50800A6F59D8B034EF0AF0FB
:1014640037EF0AF0FFFF5BEF0AF0FFFF20EE02F018
:101474006951D9266A51DA22DECF6BF0DDCF6CF0E8
:1014840069C0D9FF6AC0DAFFDECF6DF0DDCF6EF040
:101494006B516D25D96E6C516E21DA6E67C0DFFF1A
:1014A40020EE02F06951D9266A51DA22DE2A000EB2
:1014B400DD22FFFF67C067F00001686B1200FFFFC9
:1014C400FFFF000E0001776F92EF0AF0FFFF0001AB
:1014D40077510001726F736B725100016F25000127
:1014E400746F7351000170210001756F000E0001CB
:1014F40071210001766F74C0F6FF75C0F7FF76C0E6
:10150400F8FFF8BA04D00800FFFFF55005D0F6CF75
:10151400E1FFF7CFE2FFE75080EC0CF00001772BFE
:10152400FFFF000177510001726F736B725100016C
:101534006F250001746F7351000170210001756FF4
:10154400000E000171210001766F74C0F6FF75C0B2
:10155400F7FF76C0F8FFF8BA04D00800FFFFF55093
:1015640005D0F6CFE1FFF7CFE2FFE7500009D8A49A
:10157400BEEF0AF0C1EF0AF0FFFF68EF0AF0FFFFC9
:101584001200FFFFFFFF400E21EC0BF0000E0001E4
:101594006D6F070E00016D65D2EF0AF0D5EF0AF00A
:1015A400FFFFD8EF0AF0FFFF1CEF0BF0FFFF000E68
:1015B40000016E6F070E00016E65E3EF0AF0E6EFBF
:1015C4000AF0FFFFE9EF0AF0FFFF0FEF0BF0FFFF58
:1015D40000016D51080D000E00016B6F010E6C6F60
:1015E400F3506B27F4506C2300016E5100016B25FE
:1015F400D96E0001000E00016C21DA6EDF50BFECE1
:101604000DF000016E2B070E00016E650CEF0BF060
:101614000FEF0BF0FFFFE9EF0AF0FFFF00016D2B66
:10162400070E00016D6519EF0BF01CEF0BF0FFFFC7
:10163400D8EF0AF0FFFFBFEC0EF01200FFFFFFFF30
:1016440000016A6F91EC0DF0000E926E00D000D094
:1016540000D000D08198809A00016A390F0BBDEC4C
:101664000CF0CBEC0EF000D000D000D000D0000184
:101674006A51BDEC0CF0CBEC0EF0280EFFFFE82E07
:10168400FDD700016A05D8B44AEF0BF04DEF0BF01B
:10169400FFFF59EF0BF0FFFF020E00016A19D8A4F7
:1016A40056EF0BF059EF0BF0FFFF64EF0BF0FFFF69
:1016B400080E0001696FCB0EFFFFE82EFDD7692FDE
:1016C400FBD700F0FFFF0F0E926E00D000D000D0C9
:1016D40000D091EC0DF01200FFFFFFFF00016E6FD0
:1016E40097EF0BF0FFFF00016E05800921EC0BF072
:1016F400B8EF0BF0FFFF00016E513F0F800921ECA2
:101704000BF0B8EF0BF0FFFF00016E51130F8009CF
:1017140021EC0BF0B8EF0BF0FFFF00016E51530FFB
:10172400800921EC0BF0B8EF0BF0FFFF00016B51C7
:1017340000016C6F6D6B6D51000AD8B4A4EF0BF00F
:10174400B8EF0BF0FFFF6C51010AD8B474EF0BF043
:10175400030AD8B47CEF0BF0010AD8B485EF0BF080
:10176400070AD8B48EEF0BF0B8EF0BF0FFFF1200AE
:10177400FFFFFFFF000E00016C6F000E6B6F6951DD
:101784006A11D8B4C8EF0BF0CBEF0BF0FFFFFCEFFE
:101794000BF0FFFF010E6D6FD5EF0BF0FFFFD8903C
:1017A40069376A376D2BFFFF6AAFDBEF0BF0DEEFB3
:1017B4000BF0FFFFD0EF0BF0FFFFFFFFD8906B376C
:1017C4006C376951675D6A516859D8A0ECEF0BF02A
:1017D400EFEF0BF0FFFFF5EF0BF0FFFF6951675FD1
:1017E4006A51685B6B81FFFFD8906A3369336D2F50
:1017F400DFEF0BF0FFFF6BC067F06CC068F0120006
:10180400FFFFFFFF070EC16E070EB46EC00E926E8F
:101814009398949094929484959ED59ED59CD59AB1
:10182400D596D550F80B0109D56E150ED76EA00EBE
:10183400D66ED58EF294F28AF184CD90CD8E300E90
:10184400CD12CD96CD923C0ECF6EB00ECE6ECD8025
:101854009E909D809F80B190B18EB18C300EB1125C
:10186400B192000EBF6E000EBE6EBD50F00B0509A6
:10187400BD6E9E949D849F84F28CF28ED08E120055
:10188400FFFFFFFFB8C0BCF0B9C0BDF0000E0001FF
:10189400E76F000EE66F67EF0CF0FFFFB6C0A6F02F
:1018A400B7C0A7F0BC0E0001A86F000EA96FBAC0A4
:1018B400AAF0BBC0ABF0D2EC04F00001A6510001C9
:1018C400E6270001A7510001E723FFFFBCC0F6FF94
:1018D400BDC0F7FFF86A0800FFFFF5500009D8A45F
:1018E40076EF0CF079EF0CF0FFFF4FEF0CF0FFFFF9
:1018F400E6C0B6F0E7C0B7F01200FFFFFFFF00013B
:101904006D6F00016D51BFEC0DF000016E6F9DEF26
:101914000CF0FFFFC00E21EC0BF0BAEF0CF0FFFF50
:10192400940E21EC0BF0BAEF0CF0FFFFD40E21EC77
:101934000BF0BAEF0CF0FFFF00016E5100016B6F6A
:101944006C6B6C51000AD8B4AAEF0CF0BAEF0CF02F
:10195400FFFF6B51140AD8B48BEF0CF0540AD8B4BF
:1019640097EF0CF0140AD8B491EF0CF0BAEF0CF026
:10197400FFFF1200FFFFFFFF0001686F68C067F000
:10198400010E0001671780506719FE0B6719806EFE
:1019940068C067F0D8906733010E671767478050B7
:1019A4006719FD0B6719806E68C067F0D8906733BC
:1019B400D8906733010E67176747674780506719E8
:1019C400FB0B6719806E68C067F0D8906733D890B6
:1019D4006733D8906733010E6717674767476747D0
:1019E40080506719F70B6719806E1200FFFFFFFF25
:1019F400000E926E9C0E0001696FF10EFFFFE82E3F
:101A0400FDD7692FFBD700F08198809A030EBDECB7
:101A14000CF0CBEC0EF0280EFFFFE82EFDD7030EE2
:101A2400BDEC0CF0CBEC0EF0280EFFFFE82EFDD73A
:101A3400030EBDEC0CF0CBEC0EF0280EFFFFE82EED
:101A4400FDD7020EBDEC0CF0CBEC0EF0280EFFFF20
:101A5400E82EFDD70F0E926E1200FFFFFFFFC20E9D
:101A64000001C66F000EC76FBEC0C8F0BFC0C9F08A
:101A7400000ECB6F000ECA6F000ECD6F000ECC6F40
:101A8400C80EB66F000EB76FC0C0B8F0C1C0B9F0D1
:101A9400C60EBA6F000EBB6F43EC0CF0B6C0C4F0B8
:101AA400B7C0C5F00001CA51BE25D96ECB51BF21C4
:101AB400DA6E000EDF6EC4C0BEF0C5C0BFF0120007
:101AC400FFFFFFFF000E0001766F000E756F78EFC9
:101AD4000DF0FFFF74C067F0686B72C069F073C0EB
:101AE4006AF0ECEC09F00001754B762BFFFF7551A1
:101AF4007025D96E76517121DA6EDF50746F74518E
:101B0400D8A487EF0DF08AEF0DF0FFFF6BEF0DF017
:101B1400FFFF75C070F076C071F01200FFFFFFFF89
:101B24008198808AFFFF808800F0D1EC0EF00001DC
:101B3400676F6739F00B0001686F809800D000D0A0
:101B440000D000D0808800F0D1EC0EF000016813C2
:101B5400809800D000D000D000D0000168BFB5EF5D
:101B64000DF0B8EF0DF0FFFF94EF0DF0FFFF809A3A
:101B7400000168517F0B1200FFFFFFFF0001696F36
:101B840091EC0DF0000E926E00D000D000D000D089
:101B94008188809A000169390F0BBDEC0CF0CBEC05
:101BA4000EF000D000D000D000D000016951BDEC8F
:101BB4000CF0CBEC0EF000D000D000D000D00F0E13
:101BC400926E00D000D000D000D091EC0DF0120045
:101BD400FFFFFFFF00017ABFFBEF0DF07A5106E132
:101BE4007905D8B0F8EF0DF0FBEF0DF0FFFF0AEF29
:101BF4000EF0FFFF79C07BF07AC07CF07B1F7C1F66
:101C04007B4B7C2B7BC079F07CC07AF00FEF0EF01D
:101C1400FFFF79C079F07AC07AF0FFFF1200FFFF6E
:101C2400FFFF67C069F068C06AF01DEF0EF0FFFFA8
:101C34000001674B682BFFFF67C0D9FF68C0DAFF5C
:101C4400DF50D8A428EF0EF02BEF0EF0FFFF19EFB2
:101C54000EF0FFFF00016951675D676F6A516859B3
:101C6400686F1200FFFFAC0EF66E1C0EF76E000ECE
:101C7400F86E01EE00F010EE40F00900F5CFEEFF33
:101C8400E550E150FAE101EE40F0340EEE6AE80668
:101C9400FDE100EEE6F00C0EEE6AE806FDE10190CF
:101CA4000192000171EF07F00804040A111F1100EA
:101CB40002040E111F100E0002041F101E101F003C
:101CC40008040E111F100E0008041F101E101F0020
:101CD400040A0E111F100E0008040E010F110F004C
:101CE400040A0E010F110F00FFFF00016A6F000EBE
:101CF40000016B6F84EF0EF0FFFF200EBFEC0DF0C0
:101D040000016B2BFFFF00016A5100016B5DD8A03D
:101D14008EEF0EF091EF0EF0FFFF7EEF0EF0FFFF5F
:101D24001200FFFFFFFF9350EF0B936EF9EC0CF0E2
:101D3400280E21EC0BF00F0E21EC0BF0010E21EC20
:101D44000BF0060E21EC0BF0800E21EC0BF0C4EC32
:101D54000AF01200FFFFFFFF00016F6F6FC06BF00E
:101D6400010E6FEC0BF0140E76EC0EF06FC06BF0FE
:101D7400010E6FEC0BF01200FFFFFFFF020E21ECCF
:101D84000BF01200FFFFFFFF0C0E21EC0BF0120012
:101D9400FFFFFFFF808800F080981200FFFFFFFF25
:101DA40080500F0B1200FFFFFFFF1200FFFFFFFF29
:020000040020DA
:08000000FFFFFFFFFFFFFFFF00
:020000040030CA
:04000000FF220D0EC0
:0800060080FF0FC00FE00F4066
:00000001FF
