:020000040000FA
:0600000000F089EF1AF088
:10351000FFFF00EE60F02B0EEE6AE806FDE1000111
:10352000BFEF1AF0FFFF000E956E400EAF6EAC9429
:10353000AB8EAC981200FFFFFFFF00018B6F000104
:103540008B51D8B4A6EF1AF0A9EF1AF0FFFFB5EF30
:103550001AF0FFFF838000F000F000F000F000F0B0
:1035600000F000F08390BBEF1AF0FFFF838000F0C3
:1035700000F000F08390FFFF1200FFFFFFFFFFFF4E
:10358000020E0001A06F92EC1AF0BEEC1EF005ECEA
:103590001DF0FFFF9A0E00018B6F000E8C6FD2ECB6
:1035A0001DF00009D8B4D7EF1AF0DAEF1AF0FFFFD8
:1035B000C9EF1AF0FFFF9A0E0001936F000E946F8F
:1035C0006DEC1CF005EC1DF0C9EF1AF001EF00F0F6
:1035D000FFFF00018D6F000E00018F6F000E8E6FD8
:1035E00000018FBFFDEF1AF08F510AE10C0E8E5DC6
:1035F000D8A0FDEF1AF000EF1BF0FFFF03EF1BF068
:10360000FFFF30EF1BF0FFFF780E00018E25D96E13
:10361000000E8F21DA6E8BC0DFFF600E8E25D96E13
:10362000000E8F21DA6E8DC0DFFF6C0E8E25D96EF5
:10363000000E8F21DA6E8CC0DFFF00018E4B8F2BC6
:1036400000018FBF2DEF1BF08F510AE10C0E8E5D34
:10365000D8A02DEF1BF030EF1BF0FFFF03EF1BF0A6
:10366000FFFF1200FFFFFFFF78C08CF06CC08DF0F1
:1036700060C08BF0000E00018E6F0A0E00018E6597
:1036800044EF1BF047EF1BF0FFFF4AEF1BF0FFFF7B
:1036900082EF1BF0FFFF790E00018E25D96EDA6AEA
:1036A000000EDA22780E8E25E16EE26A000EE2222A
:1036B000DFCFE7FF6D0E8E25D96EDA6A000EDA22B3
:1036C0006C0E8E25E16EE26A000EE222DFCFE7FF8C
:1036D000610E8E25D96EDA6A000EDA22600E8E2512
:1036E000E16EE26A000EE222DFCFE7FF00018E2BDF
:1036F0000A0E00018E657FEF1BF082EF1BF0FFFFCB
:103700004AEF1BF0FFFF8CC083F08DC077F08BC0B9
:103710006BF01200FFFFFFFF000E00018E6F0A0E1C
:1037200000018E6596EF1BF099EF1BF0FFFF9CEFF9
:103730001BF0FFFFD4EF1BF0FFFF790E00018E2579
:10374000D96EDA6A000EDA22780E8E25E16EE26A10
:10375000000EE222DFCFE7FF6D0E8E25D96EDA6A0A
:10376000000EDA226C0E8E25E16EE26A000EE22275
:10377000DFCFE7FF610E8E25D96EDA6A000EDA22FE
:10378000600E8E25E16EE26A000EE222DFCFE7FFD7
:1037900000018E2B0A0E00018E65D1EF1BF0D4EFD5
:1037A0001BF0FFFF9CEF1BF0FFFF0A0E00018425BA
:1037B000846F000E8521856F000E8621866F84C080
:1037C00083F084C08BF085C08CF086C08DF08CC0F7
:1037D0008BF08DC08CF000018D6B8B510001776FE9
:1037E00086C06BF01200FFFFFFFF000E0001906F1C
:1037F0008EBF00EF1CF0FDEF1BF0FFFF07EF1CF08A
:10380000FFFF8D6D8E1FD8B08E2B010E906FFFFFC6
:103810008CBF10EF1CF00DEF1CF0FFFF17EF1CF03A
:10382000FFFF8B6D8C1FD8B08C2B010E901BFFFF00
:10383000000E926F000E916F8D518E11D8B423EF50
:103840001CF026EF1CF0FFFF57EF1CF0FFFF010EEE
:103850008F6F30EF1CF0FFFFD8908D378E378F2B96
:10386000FFFF8EAF36EF1CF039EF1CF0FFFF2BEFA0
:103870001CF0FFFFFFFFD890913792378D518B5D81
:103880008E518C59D8A047EF1CF04AEF1CF0FFFF77
:1038900050EF1CF0FFFF8D518B5F8E518C5B91813F
:1038A000FFFFD8908E338D338F2F3AEF1CF0FFFF40
:1038B0009051D8B45EEF1CF061EF1CF0FFFF66EF93
:1038C0001CF0FFFF916D921FD8B0922BFFFF91C0AB
:1038D0008BF092C08CF01200FFFFFFFFDBEF1CF0BB
:1038E000FFFF000120EE02F09351D9269451DA2215
:1038F000DF500001956F9551FF0DF3CF8BF0F4CFA2
:103900008CF0000E00018E6F640E8D6FF4EC1BF0D6
:1039100000018B510001976F000120EE03F09351DD
:10392000D9269451DA22DF500001956F9551FF0D91
:10393000F3CF8BF0F4CF8CF0000E00018E6F640E8D
:103940008D6FF4EC1BF000018B510001986F0001AA
:1039500020EE04F09351D9269451DA22DF50000171
:10396000956F9551FF0DF3CF8BF0F4CF8CF0000ED7
:1039700000018E6F640E8D6FF4EC1BF000018B5113
:103980000001996F98C08BF099C08CF0000197519D
:10399000E8EC1AF002EF1DF0FFFFBEEC1EF002EFA4
:1039A0001DF0FFFF33EC1BF002EF1DF0FFFF8BEC6F
:1039B0001BF002EF1DF0FFFF000120EE01F093511C
:1039C000D9269451DA22DF500001956F966B9651FB
:1039D000000AD8B4EEEF1CF002EF1DF0FFFF955186
:1039E000410AD8B4CCEF1CF0030AD8B4D1EF1CF0D4
:1039F000010AD8B4D6EF1CF0130AD8B470EF1CF04B
:103A000002EF1DF0FFFF1200FFFFFFFF000E00019D
:103A10008F6F0B0E00018F6510EF1DF013EF1DF07F
:103A2000FFFF16EF1DF0FFFFCEEF1DF0FFFF070EAB
:103A30000001906F000190BF23EF1DF020EF1DF0FB
:103A4000FFFF26EF1DF0FFFF4FEF1DF0FFFF780E89
:103A500000018F25D96EDA6A000EDA22DF500001EC
:103A60008C6F90C08DF0010E8E6F8D2B3BEF1DF093
:103A7000FFFFD8908E37FFFF8D2F38EF1DF000012C
:103A80008E518C159CEC1AF000019007000190BF3C
:103A90004FEF1DF04CEF1DF0FFFF26EF1DF0FFFF75
:103AA000070E0001906F000190BF5CEF1DF059EF11
:103AB0001DF0FFFF5FEF1DF0FFFF88EF1DF0FFFF20
:103AC000600E00018F25D96EDA6A000EDA22DF500F
:103AD00000018C6F90C08DF0010E8E6F8D2B74EFF6
:103AE0001DF0FFFFD8908E37FFFF8D2F71EF1DF077
:103AF00000018E518C159CEC1AF00001900700011A
:103B000090BF88EF1DF085EF1DF0FFFF5FEF1DF008
:103B1000FFFF070E0001906F000190BF95EF1DF0B1
:103B200092EF1DF0FFFF98EF1DF0FFFFC1EF1DF0BA
:103B3000FFFF6C0E00018F25D96EDA6A000EDA22C3
:103B4000DF5000018C6F90C08DF0010E8E6F8D2BB9
:103B5000ADEF1DF0FFFFD8908E37FFFF8D2FAAEF3E
:103B60001DF000018E518C159CEC1AF0000190079D
:103B7000000190BFC1EF1DF0BEEF1DF0FFFF98EFF9
:103B80001DF0FFFF00018F2B0B0E00018F65CBEFA7
:103B90001DF0CEEF1DF0FFFF16EF1DF0FFFF83902D
:103BA0001200FFFFFFFF000E00018F6F000E0001EB
:103BB000946F000E936FAB889EAAE1EF1DF0E4EFC7
:103BC0001DF0FFFFB9EF1EF0FFFFAECF92F0000136
:103BD0009205D8A4EEEF1DF0F1EF1DF0FFFF09EF05
:103BE0001EF0FFFF000189518A11D8A4FAEF1DF0E1
:103BF000FDEF1DF0FFFF09EF1EF0FFFF8BC0D9FFA7
:103C00008CC0DAFF92C0DFFF0001894B8A2B3AEFAC
:103C10001EF0FFFF00018ABF16EF1EF08A5109E176
:103C20008905D8A016EF1EF019EF1EF0FFFF3AEF3E
:103C30001EF0FFFF00018ABF2AEF1EF08A5107E144
:103C4000060E895DD8B027EF1EF02AEF1EF0FFFFA9
:103C50003AEF1EF0FFFF0001895100018B25D96E5C
:103C600000018A5100018C21DA6E92C0DFFF000151
:103C7000894B8A2BFFFF00018ABF48EF1EF08A5153
:103C80000AE1060E895DD8A048EF1EF04BEF1EF04A
:103C9000FFFFB7EF1EF0FFFF000E0001916F010E56
:103CA000906F000191BF5EEF1EF091510AE1050E89
:103CB000905DD8A05EEF1EF061EF1EF0FFFF64EF95
:103CC0001EF0FFFF8CEF1EF0FFFF0001905100017E
:103CD0008B25D96E0001915100018C21DA6EDF50E5
:103CE00000018D6F8D5100019325936F000E94217B
:103CF000946F0001904B912B000191BF89EF1EF052
:103D000091510AE1050E905DD8A089EF1EF08CEF6D
:103D10001EF0FFFF64EF1EF0FFFF00019351936F51
:103D2000946B000120EE05F08B51D9268C51DA22DC
:103D3000DF5000018D6F8E6B0001935100018D19D2
:103D400009E10001945100018E19D8A4AAEF1EF0D8
:103D5000ADEF1EF0FFFFB1EF1EF0FFFF010E0001FF
:103D60008F6FFFFF000E00018A6F000E896FFFFF4B
:103D7000AB98FFFF00018F511200FFFFFFFF000E05
:103D800000018B6F0B0E00018B65C9EF1EF0CCEFAD
:103D90001EF0FFFFCFEF1EF0FFFFFDEF1FF0FFFF54
:103DA000020E00018B61D7EF1EF0DAEF1EF0FFFF6D
:103DB000F6EF1EF0FFFF780E00018B25D96EDA6A50
:103DC000000EDA22000EDF6E6C0E8B25D96EDA6AD9
:103DD000000EDA22000EDF6E600E8B25D96EDA6AD5
:103DE000000EDA22400EDF6EF0EF1FF0FFFF010E33
:103DF00000018B65FEEF1EF001EF1FF0FFFF28EFC3
:103E00001FF0FFFF040E00018B6109EF1FF00CEFA4
:103E10001FF0FFFF28EF1FF0FFFF780E00018B253A
:103E2000D96EDA6A000EDA22000EDF6E6C0E8B2578
:103E3000D96EDA6A000EDA22400EDF6E600E8B2534
:103E4000D96EDA6A000EDA22000EDF6EF0EF1FF094
:103E5000FFFF030E00018B6530EF1FF033EF1FF003
:103E6000FFFF5AEF1FF0FFFF060E00018B613BEFD3
:103E70001FF03EEF1FF0FFFF5AEF1FF0FFFF780E1D
:103E800000018B25D96EDA6A000EDA22000EDF6E91
:103E90006C0E8B25D96EDA6A000EDA22400EDF6EC8
:103EA000600E8B25D96EDA6A000EDA22400EDF6EC4
:103EB000F0EF1FF0FFFF050E00018B6562EF1FF0B2
:103EC00065EF1FF0FFFF8CEF1FF0FFFF080E0001F2
:103ED0008B616DEF1FF070EF1FF0FFFF8CEF1FF095
:103EE000FFFF780E00018B25D96EDA6A000EDA2208
:103EF000400EDF6E6C0E8B25D96EDA6A000EDA2268
:103F0000000EDF6E600E8B25D96EDA6A000EDA22A3
:103F1000000EDF6EF0EF1FF0FFFF070E00018B6554
:103F200094EF1FF097EF1FF0FFFFBEEF1FF0FFFFB2
:103F30000A0E00018B619FEF1FF0A2EF1FF0FFFF41
:103F4000BEEF1FF0FFFF780E00018B25D96EDA6AF5
:103F5000000EDA22400EDF6E6C0E8B25D96EDA6A07
:103F6000000EDA22000EDF6E600E8B25D96EDA6A43
:103F7000000EDA22400EDF6EF0EF1FF0FFFF090E99
:103F800000018B65C6EF1FF0C9EF1FF0FFFFF0EFD8
:103F90001FF0FFFF0C0E00018B61D1EF1FF0D4EF7B
:103FA0001FF0FFFFF0EF1FF0FFFF780E00018B25E1
:103FB000D96EDA6A000EDA22400EDF6E6C0E8B25A7
:103FC000D96EDA6A000EDA22400EDF6E600E8B25A3
:103FD000D96EDA6A000EDA22000EDF6EF0EF1FF003
:103FE000FFFF00018B2B0B0E00018B65FAEF1FF01A
:103FF000FDEF1FF0FFFFCFEF1EF0FFFF1200FFFFEE
:020000040020DA
:08000000FFFFFFFFFFFFFFFF00
:020000040030CA
:04000000FF220D0EC0
:0800060080FF0FC00FE00F4066
:00000001FF
