:020000040000FA
:0400000007EF00F016
:1000080001820192110034EF00F0300E0001616F9F
:100018002AEC00F0837061C0ADFF0001612B620E15
:100028000001606F650EE82EFED7602FFCD700F048
:1000380000F09EAA22EF00F024EF00F00EEF00F08F
:10004800AECF61F00EEF00F007EF00F0000E956EF6
:10005800400EAF6E948C948EAC8AAB8EAC98120026
:0A00680001900192000109EF00F081
:020000040020DA
:08000000FFFFFFFFFFFFFFFF00
:020000040030CA
:0E000000FF081F1EFF8B81FF0FC00FE00F4097
:00000001FF
