:020000040000FA
:0400000063EF00F0BA
:100008000182E1CF66F0E2CF67F0D9CF68F0DACFAE
:1000180069F020EE7CF010EE6AF0040EDBCFE3FF0F
:10002800E806FCE29EA01BEF00F01DEF00F040EF99
:1000380000F06A0E00018125D96E000E8221DA6E69
:10004800DF50836E9E90240ECF6E460ECE6E010E4C
:10005800000181250001606F000E0001822100016E
:10006800616F000E0001636F050E626FFCEC00F01B
:1000780060C081F061C082F0A1A245EF00F047EFB7
:1000880000F059EF00F0A192CF0EB36E2C0EB26EB5
:1000980083508324836E8350D8A455EF00F057EF24
:1000A80000F059EF00F0010E836E69C0DAFF68C0F6
:1000B800D9FF67C0E2FF66C0E1FF019211007CEF43
:1000C80001F0210E0001766F430E776F650E786F91
:1000D800870E796F000E0001756F000E746F000EA9
:1000E80000017B6F000E7A6F55EC01F0C282C2B23C
:1000F80080EF00F082EF00F07BEF00F0C350C4CF38
:100108006FF00001706B6FC070F06F6B6F110001C2
:10011800746F000170510001756FDCEF00F0CD8045
:10012800B1907AEF00F0CD90B1807AEF00F0CD90E9
:10013800B1907AC06FF00001D8906F37D8906F37C0
:100148006F5176C070F077C071F078C072F079C0E6
:1001580073F0E82AB5EF00F0D89073337233713337
:100168007033E82EB0EF00F070510F0B836E010E64
:1001780000017A2500016F6F000E00017B2100014C
:10018800706F070E6F1500017A6F7B6B620E0001AE
:100198006F6F650EE82EFED76F2FFCD700F000F0CA
:1001A8007AEF00F0CD90B190C3CF83FF7AEF00F0E3
:1001B800C45000016F6F706B7051000AD8B4E7EF3C
:1001C80000F07AEF00F06F51000AD8B493EF00F016
:1001D800010AD8B497EF00F0030AD8B49BEF00F0F7
:1001E800010AD8B4D6EF00F07AEF00F063EF00F020
:1001F800000E0001656F61BF06EF01F004EF01F02A
:100208000CEF01F0606D611FD8B0612B010E656FB6
:1002180063BF13EF01F011EF01F017EF01F0626D0A
:10022800631FD8B0632B62516311D8B41EEF01F07D
:1002380020EF01F044EF01F0010E646F28EF01F0A8
:10024800D89062376337642B63AF2DEF01F02FEF3F
:1002580001F024EF01F06251605D63516159D8A04B
:1002680038EF01F03AEF01F03EEF01F06251605FC4
:100278006351615BD89063336233642F2FEF01F0D1
:100288006551D8B44AEF01F04CEF01F050EF01F09E
:10029800606D611FD8B0612B60C060F061C061F013
:1002A8001200000E956E92687E68C050F80B060921
:1002B800C06E000EC16EC30EC216C08E380EC012BC
:1002C800C280CD8ECF0ECD16CD92240ECF6E460EA7
:1002D800CE6E9E909D80B18ECF0EB116B192CF0E8C
:1002E800B36E2C0EB26EA192A082F28CF28E120026
:1002F800280EF66E030EF76E000EF86E00EE7CF018
:1003080010EE05F00900F5CFEEFFE550E150FAE1F7
:100318000001826B816B01900192000165EF00F092
:05032800183C66C381D2
:020000040020DA
:08000000FFFFFFFFFFFFFFFF00
:020000040030CA
:0E000000FF081F1EFF8B81FF0FC00FE00F4097
:00000001FF
