:020000040000FA
:0400000030EF00F0ED
:1000080001829EAC0AEF00F00CEF00F017EF00F051
:1000180083CF61F00F0E00016117C450F00B61111E
:10002800836E9E9CC282A1A21CEF00F01EEF00F01E
:100038002EEF00F0A192C20EB36EF70EB26E000161
:10004800602B60C061F00F0E000161178350F00B48
:100058006111836E0192110050EF00F0000E956E51
:10006800000E7F6E938092807E80C280C19AC19874
:10007800C09E380EC012C050F80B0609C06E9E9C78
:100088009D8CC282B18ECF0EB116B192B180A19271
:10009800A082F28CF28E12000001606B0190019236
:1000A800000157EF00F032EC00F059EF00F030EFAC
:0200B80000F056
:020000040020DA
:08000000FFFFFFFFFFFFFFFF00
:020000040030CA
:0E000000FF081F1EFF8B81FF0FC00FE00F4097
:00000001FF
