:020000040000FA
:0600000000F086EF00F0A5
:10000800FFFF01829EAC0BEF00F00EEF00F0FFFF48
:1000180015EF00F0FFFFC4CF72F00001736B9E9CD8
:10002800C284FFFFF2A41BEF00F01EEF00F0FFFFF9
:1000380067EF00F0FFFF00017451D8B426EF00F01D
:1000480029EF00F0FFFF3CEF00F0FFFF0001752BE8
:10005800240E0001756533EF00F036EF00F0FFFF66
:100068005FEF00F0FFFF000E0001746F5FEF00F01C
:10007800FFFF000175070A0E0001756146EF00F0E9
:1000880049EF00F0FFFF5FEF00F0FFFF010E0001F6
:10009800746F000178BF5DEF00F0785107E1030E3F
:1000A800775DD8B05AEF00F05DEF00F0FFFF5FEF2B
:1000B80000F0FFFFD59EFFFFF29476C0D7FF000E39
:1000C800D66E75C0BEFFFFFFA1A26DEF00F070EF06
:1000D80000F0FFFF81EF00F0FFFF0001704B712B74
:1000E80082A079EF00F07DEF00F0FFFF82807FEFC4
:1000F80000F0FFFF8290FFFFA192FFFF0192110025
:10010800FFFFFFFFA8EF01F0FFFFD7EC01F0090E9A
:10011800BE6EFFFF72C060F073C061F0000E000198
:10012800636F060E626FC1EC01F060C066F061C0DB
:1001380067F0010E0001696F000E686F2FEC01F087
:1001480066C077F067C078F000017751FF0A0001B8
:100158006E6F050E6F6FFFFFD8906E376F2FAFEF82
:1001680000F06E51836E04EF01F0FFFF0001715142
:100178000AE1100E705DD8A0C4EF00F0C7EF00F0E0
:10018800FFFFCEEF00F0FFFFD58E000E0001716F6C
:10019800000E706FFFFFED0E0001766F8DEF00F01F
:1001A800FFFF000171510AE10C0E705DD8A0DFEF6E
:1001B80000F0E2EF00F0FFFFE9EF00F0FFFFD58E5F
:1001C800000E0001716F000E706FFFFFED0E000151
:1001D800766F8DEF00F0FFFFE80E0001766FD58E89
:1001E8008DEF00F0FFFFED0E0001766FD58E8DEFDD
:1001F80000F0FFFFF20E0001766FD58E8DEF00F054
:10020800FFFF77C06EF078C06FF000016F51000AF1
:10021800D8B411EF01F08DEF00F0FFFF6E51000A26
:10022800D8B48DEF00F0010AD8B4B9EF00F0030A92
:10023800D8B4D4EF00F0010AD8B4EFEF00F0070A01
:10024800D8B4F6EF00F0010AD8B4FDEF00F08DEF56
:1002580000F086EF00F0FFFF000E00016B6F69BF32
:100268003BEF01F038EF01F0FFFF42EF01F0FFFF35
:10027800686D691FD8B0692B010E6B6FFFFF67BFF0
:100288004BEF01F048EF01F0FFFF52EF01F0FFFFE5
:10029800666D671FD8B0672B010E6B1BFFFF000E42
:1002A8006D6F000E6C6F68516911D8B45EEF01F084
:1002B80061EF01F0FFFF92EF01F0FFFF010E6A6F9F
:1002C8006BEF01F0FFFFD890683769376A2BFFFFA3
:1002D80069AF71EF01F074EF01F0FFFF66EF01F015
:1002E800FFFFFFFFD8906C376D376851665D695125
:1002F8006759D8A082EF01F085EF01F0FFFF8BEF7F
:1003080001F0FFFF6851665F6951675B6C81FFFF11
:10031800D890693368336A2F75EF01F0FFFF6B518E
:10032800D8B499EF01F09CEF01F0FFFFA1EF01F0C5
:10033800FFFF6C6D6D1FD8B06D2BFFFF6CC066F0B2
:100348006DC067F01200FFFF520EF66E040EF76ED6
:10035800000EF86E0900F5CF74F00900F5CF75F0BE
:100368000900F5CF76F00001736B726B716B706BDF
:1003780001900192000188EF00F0FFFF0001605139
:100388006203F3CF64F0F4CF65F060516303F35078
:10039800652761516203F350652764C060F065C04A
:1003A80061F01200FFFFFFFF1FEC02F005EC02F006
:1003B80019EC02F0E8EC01F0F7EC01F012EC02F0B5
:1003C80024EC02F01200FFFFFFFFCB68800EBE6E28
:1003D800CF0EBD1694949E92030ECA12CA840F0EB5
:1003E800BD121200FFFFFFFFD59ED59CD596D59A6A
:1003F800F80ED516F28AF20ED76E0D0ED66E1200D2
:10040800FFFFFFFF9280000EC16EC280C19EC250E6
:100418003F0B8009C26EC18C1200FFFFFFFF010E67
:10042800B16EA08294901200FFFFFFFF9E9C9D8CEE
:10043800C2841200FFFFFFFF000E956E1200FFFF3F
:0D044800FFFFF28CF28E1200FFFF0109F29F
:02045600FFFFA6
:020000040020DA
:08000000FFFFFFFFFFFFFFFF00
:020000040030CA
:04000000FF220D0EC0
:0800060080FF0FC00FE00F4066
:00000001FF
