:020000040000FA
:0400000015EF00F008
:100008000182A1A00AEF00F00CEF00F013EF00F05E
:10001800A190120ECE24BB6E7A0ECF20BC6E019238
:10002800110036EF00F09568000E7F6E9380CD8E3C
:10003800300ECD12CD92CD80BA50F00B0209BA6EB7
:100048009492B196B19CAA0EBC6EBB0EBB6EA190E9
:10005800A080F28CF28E120017EC00F032EF00F064
:0E00680015EF00F001900192000130EF00F062
:020000040020DA
:08000000FFFFFFFFFFFFFFFF00
:020000040030CA
:0E000000FF081F1EFF8B81FF0FC00FE00F4097
:00000001FF
