:020000040000FA
:0600000000F087EF00F0A4
:10000800FFFF01829EAC0BEF00F00EEF00F0FFFF48
:1000180015EF00F0FFFFC4CF75F00001766B9E9CD2
:10002800C284FFFFF2A41BEF00F01EEF00F0FFFFF9
:1000380068EF00F0FFFF78C0BEFF00017751D8B429
:1000480028EF00F02BEF00F0FFFF3EEF00F0FFFF7E
:100058000001782B240E0001786535EF00F038EFA9
:1000680000F0FFFF62EF00F0FFFF000E0001776F66
:1000780062EF00F0FFFF000178070A0E00017861C7
:1000880048EF00F04BEF00F0FFFF62EF00F0FFFFDA
:1000980000017BBF5CEF00F07B5107E1030E7A5D46
:1000A800D8B059EF00F05CEF00F0FFFF5EEF00F012
:1000B800FFFFD59EFFFF010E0001776FFFFFF2944F
:1000C80079C0D7FF000ED66EFFFFA1A26EEF00F039
:1000D80071EF00F0FFFF82EF00F0FFFF0001734BAC
:1000E800742B82A07AEF00F07EEF00F0FFFF828091
:1000F80080EF00F0FFFF8290FFFFA192FFFF0192C7
:100108001100FFFFFFFFA1EF01F0FFFF090E000143
:10011800706FD2EC01F0D58E090EBE6EFFFF75C070
:1001280060F076C061F0000E0001636F060E626F2A
:10013800BCEC01F060C066F061C067F0010E000120
:10014800696F000E686F28EC01F066C07AF067C02E
:100158007BF000017A39E846E00B836EFDEF00F092
:10016800FFFF000174510AE1100E735DD8A0BFEFC4
:1001780000F0C2EF00F0FFFF92EF00F0FFFFED0E7E
:100188000001796FD58E000E0001746F000E736F39
:1001980092EF00F0FFFF000174510AE10C0E735D4D
:1001A800D8A0D9EF00F0DCEF00F0FFFF92EF00F0ED
:1001B800FFFFED0E0001796FD58E000E0001746F00
:1001C800000E736F92EF00F0FFFFE80E0001796FE9
:1001D800D58E92EF00F0FFFFED0E0001796FD58EFE
:1001E80092EF00F0FFFFF20E0001796FD58E92EFCB
:1001F80000F0FFFF7AC06EF07BC06FF000016F5116
:10020800000AD8B40AEF01F092EF00F0FFFF6E5138
:10021800000AD8B492EF00F0010AD8B4B4EF00F0A5
:10022800030AD8B4CEEF00F0010AD8B4E8EF00F022
:10023800070AD8B4EFEF00F0010AD8B4F6EF00F0DF
:1002480092EF00F087EF00F0FFFF000E00016B6FE8
:1002580069BF34EF01F031EF01F0FFFF3BEF01F030
:10026800FFFF686D691FD8B0692B010E6B6FFFFF28
:1002780067BF44EF01F041EF01F0FFFF4BEF01F0E2
:10028800FFFF666D671FD8B0672B010E6B1BFFFF62
:10029800000E6D6F000E6C6F68516911D8B457EF7E
:1002A80001F05AEF01F0FFFF8BEF01F0FFFF010EA5
:1002B8006A6F64EF01F0FFFFD890683769376A2BDF
:1002C800FFFF69AF6AEF01F06DEF01F0FFFF5FEF2D
:1002D80001F0FFFFFFFFD8906C376D376851665DFE
:1002E80069516759D8A07BEF01F07EEF01F0FFFF5D
:1002F80084EF01F0FFFF6851665F6951675B6C81AD
:10030800FFFFD890693368336A2F6EEF01F0FFFF63
:100318006B51D8B492EF01F095EF01F0FFFF9AEF1F
:1003280001F0FFFF6C6D6D1FD8B06D2BFFFF6CC027
:1003380066F06DC067F01200FFFF480EF66E040EFF
:10034800F76E000EF86E0900F5CF77F00900F5CFCB
:1003580078F00900F5CF79F00001766B756B746B56
:10036800736B726B716B01900192000189EF00F061
:10037800FFFF000160516203F3CF64F0F4CF65F032
:1003880060516303F350652761516203F350652799
:1003980064C060F065C061F01200FFFFFFFF1AEC57
:1003A80002F000EC02F014EC02F0E3EC01F0F2ECE5
:1003B80001F00DEC02F01FEC02F01200FFFFFFFF4E
:1003C800CB68800EBE6ECF0EBD1694949E92030E1F
:1003D800CA12CA840F0EBD121200FFFFFFFFD59E7E
:1003E800D59CD596D59AF80ED516F28AF20ED76E08
:1003F8000D0ED66E1200FFFFFFFF9280000EC16E39
:10040800C280C19EC2503F0B8009C26EC18C1200CF
:10041800FFFFFFFF010EB16EA08294901200FFFF54
:10042800FFFF9E9C9D8CC2841200FFFFFFFF000E01
:10043800956E1200FFFFFFFFF28CF28E1200FFFF95
:030448000109F2B5
:02044C00FFFFB0
:020000040020DA
:08000000FFFFFFFFFFFFFFFF00
:020000040030CA
:04000000FF220D0EC0
:0800060080FF0FC00FE00F4066
:00000001FF
