:020000040000FA
:0600000000F05AEF00F0D1
:10000800FFFF01829EAC0BEF00F00EEF00F0FFFF48
:1000180015EF00F0FFFFC4CF6EF000016F6B9E9CE0
:10002800C284FFFFF2A41BEF00F01EEF00F0FFFFF9
:1000380055EF00F0FFFF71C0BEFF00017051D8B44A
:1000480028EF00F02BEF00F0FFFF3EEF00F0FFFF7E
:100058000001712B240E0001716535EF00F038EFB7
:1000680000F0FFFF4FEF00F0FFFF000E0001706F80
:100078004FEF00F0FFFF000171070A0E00017161E8
:1000880048EF00F04BEF00F0FFFF4FEF00F0FFFFED
:10009800010E0001706FFFFFF294E20ED76EB40EEE
:1000A800D66EFFFF01921100FFFFFFFF67EF01F01F
:1000B800FFFF000E0001656F63BF68EF00F065EF9A
:1000C80000F0FFFF6FEF00F0FFFF626D631FD8B015
:1000D800632B010E656FFFFF61BF78EF00F075EFCE
:1000E80000F0FFFF7FEF00F0FFFF606D611FD8B0E9
:1000F800612B010E651BFFFF000E676F000E666F18
:1001080062516311D8B48BEF00F08EEF00F0FFFF5F
:10011800BFEF00F0FFFF010E646F98EF00F0FFFFE4
:10012800D89062376337642BFFFF63AF9EEF00F010
:10013800A1EF00F0FFFF93EF00F0FFFFFFFFD89063
:10014800663767376251605D63516159D8A0AFEF78
:1001580000F0B2EF00F0FFFFB8EF00F0FFFF6251D0
:10016800605F6351615B6681FFFFD89063336233E0
:10017800642FA2EF00F0FFFF6551D8B4C6EF00F07E
:10018800C9EF00F0FFFFCEEF00F0FFFF666D671FBD
:10019800D8B0672BFFFF66C060F067C061F012003F
:1001A800FFFFFFFF090E00016A6F010E00016B6F70
:1001B8007DEC01F0FFFF00016FBFECEF00F06F5125
:1001C8000AE1810E6E5DD8A0ECEF00F0EFEF00F0D1
:1001D800FFFFF3EF00F0FFFF838EF5EF00F0FFFF66
:1001E800839EFFFF6EC060F06FC061F0000E0001DB
:1001F800636F070E626F5CEC00F060C06CF061C06A
:100208006DF025EF01F0FFFFD59EDEEF00F0FFFF58
:10021800D550F80B0209D56ED58EDEEF00F0FFFF42
:10022800D550F80B0109D56ED58EDEEF00F0FFFF33
:10023800F80ED516D58EDEEF00F0FFFFB180DEEFA9
:1002480000F0FFFF6CC068F06DC069F000016951F3
:10025800000AD8B432EF01F0DEEF00F0FFFF68517A
:10026800000AD8B407EF01F0010AD8B40BEF01F087
:10027800030AD8B413EF01F0010AD8B41BEF01F058
:10028800070AD8B421EF01F0DEEF00F05AEF00F0D2
:10029800FFFFCB68800EBE6ECF0EBD16948094947F
:1002A8009E92030ECA12CA840F0EBD12FFFF9EA2B1
:1002B80060EF01F063EF01F0FFFF5AEF01F0FFFF7D
:1002C80094921200FFFF680EF66E030EF76E000E92
:1002D800F86E0900F5CF70F00900F5CF71F0000154
:1002E8006F6B6E6B6D6B6C6B019001920001D5EFBB
:1002F80000F0FFFFAAEC01F08CEC01F0A4EC01F097
:100308004CEC01F099EC01F0AFEC01F01200FFFFAA
:10031800FFFF9280000EC16EC280C19EC2503F0B8B
:100328008009C26EC18C1200FFFFFFFFD58ED596E3
:10033800D59AF28AE20ED76EB40ED66E1200FFFF7F
:10034800FFFF9E9C9D8CC2841200FFFFFFFF000EE2
:10035800956E1200FFFFFFFFF28CF28E1200FFFF76
:040368000109FFFF89
:020000040020DA
:08000000FFFFFFFFFFFFFFFF00
:020000040030CA
:04000000FF220D0EC0
:0800060080FF0FC00FE00F4066
:00000001FF
