:020000040000FA
:0600000000F0ACEF00F07F
:10000800FFFF01829EAC0BEF00F00EEF00F0FFFF48
:1000180015EF00F0FFFFC4CF62F00001636B9E9CF8
:10002800C284FFFFF2A41BEF00F01EEF00F0FFFFF9
:1000380070EF00F0FFFF6BC0BEFF00016A51D8B43B
:1000480028EF00F02BEF00F0FFFF3CEF00F0FFFF80
:10005800240E00016B6533EF00F036EF00F0FFFF70
:100068005EEF00F0FFFF000E00016A6F5EEF00F028
:10007800FFFF0A0E00016B6144EF00F047EF00F04C
:10008800FFFF5EEF00F0FFFF000165BF55EF00F0D6
:1000980065510AE1040E645DD8A055EF00F058EFF1
:1000A80000F0FFFF5AEF00F0FFFFD59EFFFF010EA3
:1000B80000016A6FFFFF83AE64EF00F068EF00F0A5
:1000C800FFFF838E6AEF00F0FFFF839EFFFFF2942D
:1000D800EC0ED76E780ED66EFFFFA1A276EF00F079
:1000E80079EF00F0FFFFA7EF00F0FFFF0001604B82
:1000F800612B040E000164196511D8A486EF00F085
:1001080089EF00F0FFFFA5EF00F0FFFF000161BFDE
:1001180097EF00F061510AE10B0E605DD8A097EFF0
:1001280000F09AEF00F0FFFFA5EF00F0FFFFD550B9
:10013800F80B0109D56ED58E000E0001616F000E17
:10014800606FFFFFA192FFFF01921100FFFFFFFF09
:10015800F8EF00F0FFFF090E0001686F010E0001C3
:10016800696F10EC01F0D58EBAEF00F0FFFF64C0A4
:1001780066F065C067F000016751000AD8B4C7EFA0
:1001880000F0BAEF00F0FFFF6651000AD8B4BAEFEA
:1001980000F0010AD8B4BAEF00F0030AD8B4BAEFF5
:1001A80000F0010AD8B4BAEF00F0BAEF00F0ACEFF3
:1001B80000F0FFFFCB68800EBE6ECF0EBD16948098
:1001C80094949E92030ECA12CA840F0EBD12FFFFAA
:1001D8009EA2F1EF00F0F4EF00F0FFFFEBEF00F06C
:1001E800FFFF94921200FFFF940EF66E020EF76E58
:1001F800000EF86E0900F5CF6AF00900F5CF6BF034
:100208000001656B646B636B626B616B606B019083
:1002180001920001AEEF00F0FFFF40EC01F02DEC81
:1002280001F03AEC01F0DDEC00F01FEC01F045ECD8
:1002380001F01200FFFFFFFFD58ED59CD596D59A09
:10024800F80ED516F28AF60ED76E3C0ED66E120050
:10025800FFFFFFFF9280000EC16EC280C19EC25098
:100268003F0B8009C26EC18C1200FFFFFFFF9E9CEE
:100278009D8CC2841200FFFFFFFF000E956E1200D6
:10028800FFFFFFFFF28CF28E1200FFFF0109FFFF54
:020000040020DA
:08000000FFFFFFFFFFFFFFFF00
:020000040030CA
:04000000FF220D0EC0
:0800060080FF0FC00FE00F4066
:00000001FF
