:020000040000FA
:0600000000F09FEF1DF06F
:103B2200FFFFFFFF1200FFFFFFFF1200FFFFFFFF7B
:103B3200000E0001886F88511200FFFF00EE60F056
:103B4200260EEE6AE806FDE10001CBEF1DF0FFFF55
:103B52000001866F00018651D8B4B2EF1DF0B5EFB7
:103B62001DF0FFFFC1EF1DF0FFFF838000F000F0AA
:103B720000F000F000F000F000F08390C7EF1DF0BD
:103B8200FFFF838000F000F000F08390FFFF12003F
:103B9200FFFFFFFFFFFF92EC1DF0BEEC1EF0F1EC09
:103BA2001DF0FFFF8C0E0001866F000E876F98ECF0
:103BB2001DF00009D8B4E0EF1DF0E3EF1DF0FFFFA8
:103BC200D2EF1DF0FFFF8C0E0001866F000E876F93
:103BD20095EC1DF0F1EC1DF0D2EF1DF001EF00F0BD
:103BE200FFFF000E00018A6F0B0E00018A65FCEFD9
:103BF2001DF0FFEF1DF0FFFF02EF1EF0FFFFBAEF17
:103C02001EF0FFFF070E00018B6F00018BBF0FEF4D
:103C12001EF00CEF1EF0FFFF12EF1EF0FFFF3BEF56
:103C22001EF0FFFF780E00018A25D96EDA6A000EB7
:103C3200DA22DF500001876F8BC088F0010E896F96
:103C4200882B27EF1EF0FFFFD8908937FFFF882FC0
:103C520024EF1EF0000189518715A8EC1DF0000128
:103C62008B0700018BBF3BEF1EF038EF1EF0FFFF0A
:103C720012EF1EF0FFFF070E00018B6F00018BBFDA
:103C820048EF1EF045EF1EF0FFFF4BEF1EF0FFFF67
:103C920074EF1EF0FFFF600E00018A25D96EDA6A0A
:103CA200000EDA22DF500001876F8BC088F0010E10
:103CB200896F882B60EF1EF0FFFFD8908937FFFFD6
:103CC200882F5DEF1EF0000189518715A8EC1DF0C9
:103CD20000018B0700018BBF74EF1EF071EF1EF025
:103CE200FFFF4BEF1EF0FFFF070E00018B6F00017D
:103CF2008BBF81EF1EF07EEF1EF0FFFF84EF1EF000
:103D0200FFFFADEF1EF0FFFF6C0E00018A25D96E9A
:103D1200DA6A000EDA22DF500001876F8BC088F06A
:103D2200010E896F882B99EF1EF0FFFFD89089371B
:103D3200FFFF882F96EF1EF0000189518715A8EC2E
:103D42001DF000018B0700018BBFADEF1EF0AAEF43
:103D52001EF0FFFF84EF1EF0FFFF00018A2B0B0E07
:103D620000018A65B7EF1EF0BAEF1EF0FFFF02EF07
:103D72001EF0FFFF83901200FFFFFFFF000E000105
:103D8200866F0B0E00018665C9EF1EF0CCEF1EF0A8
:103D9200FFFFCFEF1EF0FFFFFDEF1FF0FFFF020E50
:103DA20000018661D7EF1EF0DAEF1EF0FFFFF6EF9B
:103DB2001EF0FFFF780E00018625D96EDA6A000E2A
:103DC200DA22000EDF6E6C0E8625D96EDA6A000EDC
:103DD200DA22000EDF6E600E8625D96EDA6A000ED8
:103DE200DA22400EDF6EF0EF1FF0FFFF010E00013E
:103DF2008665FEEF1EF001EF1FF0FFFF28EF1FF0B8
:103E0200FFFF040E0001866109EF1FF00CEF1FF0A7
:103E1200FFFF28EF1FF0FFFF780E00018625D96E05
:103E2200DA6A000EDA22000EDF6E6C0E8625D96E7B
:103E3200DA6A000EDA22400EDF6E600E8625D96E37
:103E4200DA6A000EDA22000EDF6EF0EF1FF0FFFFDB
:103E5200030E0001866530EF1FF033EF1FF0FFFF06
:103E62005AEF1FF0FFFF060E000186613BEF1FF0C5
:103E72003EEF1FF0FFFF5AEF1FF0FFFF780E000129
:103E82008625D96EDA6A000EDA22000EDF6E6C0E1B
:103E92008625D96EDA6A000EDA22400EDF6E600ED7
:103EA2008625D96EDA6A000EDA22400EDF6EF0EF56
:103EB2001FF0FFFF050E0001866562EF1FF065EF40
:103EC2001FF0FFFF8CEF1FF0FFFF080E000186615D
:103ED2006DEF1FF070EF1FF0FFFF8CEF1FF0FFFF81
:103EE200780E00018625D96EDA6A000EDA22400EBB
:103EF200DF6E6C0E8625D96EDA6A000EDA22000EAB
:103F0200DF6E600E8625D96EDA6A000EDA22000EA6
:103F1200DF6EF0EF1FF0FFFF070E0001866594EFE2
:103F22001FF097EF1FF0FFFFBEEF1FF0FFFF0A0E1B
:103F3200000186619FEF1FF0A2EF1FF0FFFFBEEFAF
:103F42001FF0FFFF780E00018625D96EDA6A000E97
:103F5200DA22400EDF6E6C0E8625D96EDA6A000E0A
:103F6200DA22000EDF6E600E8625D96EDA6A000E46
:103F7200DA22400EDF6EF0EF1FF0FFFF090E0001A4
:103F82008665C6EF1FF0C9EF1FF0FFFFF0EF1FF0CD
:103F9200FFFF0C0E00018661D1EF1FF0D4EF1FF07E
:103FA200FFFFF0EF1FF0FFFF780E00018625D96EAC
:103FB200DA6A000EDA22400EDF6E6C0E8625D96EAA
:103FC200DA6A000EDA22400EDF6E600E8625D96EA6
:103FD200DA6A000EDA22000EDF6EF0EF1FF0FFFF4A
:103FE2000001862B0B0E00018665FAEF1FF0FDEF34
:0E3FF2001FF0FFFFCFEF1EF0FFFF1200FFFFDA
:020000040020DA
:08000000FFFFFFFFFFFFFFFF00
:020000040030CA
:04000000FF220D0EC0
:0800060080FF0FC00FE00F4066
:00000001FF
