:020000040000FA
:0600000000F0B9EF19F059
:10337000FFFF00EE60F02A0EEE6AE806FDE10001B4
:10338000EFEF19F0FFFF000E956E400EAF6EAC949C
:10339000AB8EAC981200FFFFFFFF00018A6F0001A7
:1033A0008A51D8B4D6EF19F0D9EF19F0FFFFE5EF45
:1033B00019F0FFFF838000F000F000F000F000F053
:1033C00000F000F08390EBEF19F0FFFF838000F036
:1033D00000F000F08390FFFF1200FFFFFFFFFFFFF0
:1033E000C2EC19F0BEEC1EF038EC1CF0FFFF990E99
:1033F00000018A6F000E8B6FD2EC1DF00009D8B46B
:1034000004EF1AF007EF1AF0FFFFF6EF19F0FFFFD5
:10341000990E0001926F000E936FA0EC1BF038EC38
:103420001CF0F6EF19F001EF00F0FFFF00018C6FC8
:10343000000E00018E6F000E8D6F00018EBF2AEF0F
:103440001AF08E510AE10C0E8D5DD8A02AEF1AF009
:103450002DEF1AF0FFFF30EF1AF0FFFF5DEF1AF0CB
:10346000FFFF780E00018D25D96E000E8E21DA6ED9
:103470008AC0DFFF600E8D25D96E000E8E21DA6EB8
:103480008CC0DFFF6C0E8D25D96E000E8E21DA6E9A
:103490008BC0DFFF00018D4B8E2B00018EBF5AEFDA
:1034A0001AF08E510AE10C0E8D5DD8A05AEF1AF079
:1034B0005DEF1AF0FFFF30EF1AF0FFFF1200FFFF81
:1034C000FFFF78C08BF06CC08CF060C08AF0000EFB
:1034D00000018D6F0A0E00018D6571EF1AF074EF17
:1034E0001AF0FFFF77EF1AF0FFFFAFEF1AF0FFFFC0
:1034F000790E00018D25D96EDA6A000EDA22780E77
:103500008D25E16EE26A000EE222DFCFE7FF6D0E4D
:103510008D25D96EDA6A000EDA226C0E8D25E16EE9
:10352000E26A000EE222DFCFE7FF610E8D25D96E41
:10353000DA6A000EDA22600E8D25E16EE26A000E74
:10354000E222DFCFE7FF00018D2B0A0E00018D651F
:10355000ACEF1AF0AFEF1AF0FFFF77EF1AF0FFFFB2
:103560008BC083F08CC077F08AC06BF01200FFFF35
:10357000FFFF000E00018F6F8BBFC4EF1AF0C1EF89
:103580001AF0FFFFCBEF1AF0FFFF8A6D8B1FD8B048
:103590008B2B010E8F6FFFFF8DBFD4EF1AF0D1EF91
:1035A0001AF0FFFFD9EF1AF0FFFF8C6D8D1FD8B016
:1035B0008D2BFFFF8C518D11D8B4E1EF1AF0E4EFA1
:1035C0001AF0FFFF11EF1BF0FFFF010E8E6FEEEF01
:1035D0001AF0FFFFD8908C378D378E2BFFFF8DAF01
:1035E000F4EF1AF0F7EF1AF0FFFFE9EF1AF0FFFF20
:1035F000FFFF8C518A5D8D518B59D8A002EF1BF0D3
:1036000005EF1BF0FFFF0AEF1BF0FFFF8C518A5FF5
:103610008D518B5BFFFFD8908D338C338E2FF8EF5D
:103620001AF0FFFF8F51D8B418EF1BF01BEF1BF0FF
:10363000FFFF20EF1BF0FFFF8A6D8B1FD8B08B2B95
:10364000FFFF8AC08AF08BC08BF01200FFFFFFFFE4
:10365000000E00018F6F8DBF33EF1BF030EF1BF0BA
:10366000FFFF3AEF1BF0FFFF8C6D8D1FD8B08D2B45
:10367000010E8F6FFFFF8BBF43EF1BF040EF1BF07E
:10368000FFFF4AEF1BF0FFFF8A6D8B1FD8B08B2B1B
:10369000010E8F1BFFFF000E916F000E906F8C517B
:1036A0008D11D8B456EF1BF059EF1BF0FFFF8AEFD6
:1036B0001BF0FFFF010E8E6F63EF1BF0FFFFD89032
:1036C0008C378D378E2BFFFF8DAF69EF1BF06CEFC2
:1036D0001BF0FFFF5EEF1BF0FFFFFFFFD89090375E
:1036E00091378C518A5D8D518B59D8A07AEF1BF0A0
:1036F0007DEF1BF0FFFF83EF1BF0FFFF8C518A5F14
:103700008D518B5B9081FFFFD8908D338C338E2F42
:103710006DEF1BF0FFFF8F51D8B491EF1BF094EFCA
:103720001BF0FFFF99EF1BF0FFFF906D911FD8B0CA
:10373000912BFFFF90C08AF091C08BF01200FFFF29
:10374000FFFF0EEF1CF0FFFF000120EE02F0925190
:10375000D9269351DA22DF500001946F9451FF0D66
:10376000F3CF8AF0F4CF8BF0000E00018D6F640E62
:103770008C6F27EC1BF000018A510001966F00014D
:1037800020EE03F09251D9269351DA22DF50000146
:10379000946F9451FF0DF3CF8AF0F4CF8BF0000EAD
:1037A00000018D6F640E8C6F27EC1BF000018A51B5
:1037B0000001976F000120EE04F09251D926935139
:1037C000DA22DF500001946F9451FF0DF3CF8AF09D
:1037D000F4CF8BF0000E00018D6F640E8C6F27EC20
:1037E0001BF000018A510001986F97C08AF098C0C1
:1037F0008BF00001965115EC1AF035EF1CF0FFFF2D
:10380000BEEC1EF035EF1CF0FFFF60EC1AF035EF58
:103810001CF0FFFF05EC1DF035EF1CF0FFFF000171
:1038200020EE01F09251D9269351DA22DF500001A7
:10383000946F956B9551000AD8B421EF1CF035EFC9
:103840001CF0FFFF9451410AD8B4FFEF1BF0030AAC
:10385000D8B404EF1CF0010AD8B409EF1CF0130A25
:10386000D8B4A3EF1BF035EF1CF0FFFF1200FFFFF1
:10387000FFFF000E00018E6F0B0E00018E6543EFFF
:103880001CF046EF1CF0FFFF49EF1CF0FFFF01EFBB
:103890001DF0FFFF070E00018F6F00018FBF56EF75
:1038A0001CF053EF1CF0FFFF59EF1CF0FFFF82EFFD
:1038B0001CF0FFFF780E00018E25D96EDA6A000E2B
:1038C000DA22DF5000018B6F8FC08CF0010E8D6FFC
:1038D0008C2B6EEF1CF0FFFFD8908D37FFFF8C2FE5
:1038E0006BEF1CF000018D518B15CCEC19F0000131
:1038F0008F0700018FBF82EF1CF07FEF1CF0FFFFEE
:1039000059EF1CF0FFFF070E00018F6F00018FBF02
:103910008FEF1CF08CEF1CF0FFFF92EF1CF0FFFF0D
:10392000BBEF1CF0FFFF600E00018E25D96EDA6A36
:10393000000EDA22DF5000018B6F8FC08CF0010E79
:103940008D6F8C2BA7EF1CF0FFFFD8908D37FFFFFA
:103950008C2FA4EF1CF000018D518B15CCEC19F0CD
:1039600000018F0700018FBFBBEF1CF0B8EF1CF008
:10397000FFFF92EF1CF0FFFF070E00018F6F0001A9
:103980008FBFC8EF1CF0C5EF1CF0FFFFCBEF1CF0A2
:10399000FFFFF4EF1CF0FFFF6C0E00018E25D96EC7
:1039A000DA6A000EDA22DF5000018B6F8FC08CF0D4
:1039B000010E8D6F8C2BE0EF1CF0FFFFD8908D3740
:1039C000FFFF8C2FDDEF1CF000018D518B15CCEC2F
:1039D00019F000018F0700018FBFF4EF1CF0F1EF29
:1039E0001CF0FFFFCBEF1CF0FFFF00018E2B0B0E36
:1039F00000018E65FEEF1CF001EF1DF0FFFF49EFA7
:103A00001CF0FFFF83901200FFFFFFFF000E00017C
:103A1000906F0A0E0001906510EF1DF013EF1DF07E
:103A2000FFFF16EF1DF0FFFF4EEF1DF0FFFF790EB9
:103A300000019025D96EDA6A000EDA22780E902500
:103A4000E16EE26A000EE222DFCFE7FF6D0E902505
:103A5000D96EDA6A000EDA226C0E9025E16EE26A07
:103A6000000EE222DFCFE7FF610E9025D96EDA6A01
:103A7000000EDA22600E9025E16EE26A000EE2226C
:103A8000DFCFE7FF0001902B0A0E000190654BEF9E
:103A90001DF04EEF1DF0FFFF16EF1DF0FFFF0A0EA9
:103AA0000001842500018A6F000E000185210001BC
:103AB0008B6F010E00018D6F2C0E8C6FB8EC1AF01D
:103AC0008AC084F08BC085F0000185BF74EF1DF0C3
:103AD000855107E1640E845DD8B071EF1DF074EF7D
:103AE0001DF0FFFF7FEF1DF0FFFF84C083F0000E8D
:103AF0000001776F000E00016B6FCFEF1DF0FFFF2D
:103B0000000185BF90EF1DF0855107E1C80E845D6F
:103B1000D8B08DEF1DF090EF1DF0FFFFA8EF1DF066
:103B2000FFFF000E0001836F84C08AF000018B6BE1
:103B3000000E00018D6F640E8C6FB8EC1AF000015E
:103B40008A510001776F000E00016B6FCFEF1DF0FF
:103B5000FFFF000185BFB9EF1DF02C0E845D010E43
:103B60008559D8B0B6EF1DF0B9EF1DF0FFFFCFEFCC
:103B70001DF0FFFF000E0001836F000E0001776F44
:103B800084C08AF000018B6B000E00018D6FC80E9F
:103B90008C6FB8EC1AF000018A5100016B6FFFFFC7
:103BA0001200FFFFFFFF000E00018E6F000E0001EC
:103BB000936F000E926FAB889EAAE1EF1DF0E4EFC9
:103BC0001DF0FFFFB9EF1EF0FFFFAECF91F0000137
:103BD0009105D8A4EEEF1DF0F1EF1DF0FFFF09EF06
:103BE0001EF0FFFF000188518911D8A4FAEF1DF0E3
:103BF000FDEF1DF0FFFF09EF1EF0FFFF8AC0D9FFA8
:103C00008BC0DAFF91C0DFFF0001884B892B3AEFB0
:103C10001EF0FFFF000189BF16EF1EF0895109E178
:103C20008805D8A016EF1EF019EF1EF0FFFF3AEF3F
:103C30001EF0FFFF000189BF2AEF1EF0895107E146
:103C4000060E885DD8B027EF1EF02AEF1EF0FFFFAA
:103C50003AEF1EF0FFFF0001885100018A25D96E5E
:103C60000001895100018B21DA6E91C0DFFF000154
:103C7000884B892BFFFF000189BF48EF1EF0895157
:103C80000AE1060E885DD8A048EF1EF04BEF1EF04B
:103C9000FFFFB7EF1EF0FFFF000E0001906F010E57
:103CA0008F6F000190BF5EEF1EF090510AE1050E8C
:103CB0008F5DD8A05EEF1EF061EF1EF0FFFF64EF96
:103CC0001EF0FFFF8CEF1EF0FFFF00018F5100017F
:103CD0008A25D96E0001905100018B21DA6EDF50E8
:103CE00000018C6F8C5100019225926F000E932180
:103CF000936F00018F4B902B000190BF89EF1EF056
:103D000090510AE1050E8F5DD8A089EF1EF08CEF6F
:103D10001EF0FFFF64EF1EF0FFFF00019251926F53
:103D2000936B000120EE05F08A51D9268B51DA22DF
:103D3000DF5000018C6F8D6B0001925100018C19D6
:103D400009E10001935100018D19D8A4AAEF1EF0DA
:103D5000ADEF1EF0FFFFB1EF1EF0FFFF010E0001FF
:103D60008E6FFFFF000E0001896F000E886FFFFF4E
:103D7000AB98FFFF00018E511200FFFFFFFF000E06
:103D800000018A6F0B0E00018A65C9EF1EF0CCEFAF
:103D90001EF0FFFFCFEF1EF0FFFFFDEF1FF0FFFF54
:103DA000020E00018A61D7EF1EF0DAEF1EF0FFFF6E
:103DB000F6EF1EF0FFFF780E00018A25D96EDA6A51
:103DC000000EDA22000EDF6E6C0E8A25D96EDA6ADA
:103DD000000EDA22000EDF6E600E8A25D96EDA6AD6
:103DE000000EDA22400EDF6EF0EF1FF0FFFF010E33
:103DF00000018A65FEEF1EF001EF1FF0FFFF28EFC4
:103E00001FF0FFFF040E00018A6109EF1FF00CEFA5
:103E10001FF0FFFF28EF1FF0FFFF780E00018A253B
:103E2000D96EDA6A000EDA22000EDF6E6C0E8A2579
:103E3000D96EDA6A000EDA22400EDF6E600E8A2535
:103E4000D96EDA6A000EDA22000EDF6EF0EF1FF094
:103E5000FFFF030E00018A6530EF1FF033EF1FF004
:103E6000FFFF5AEF1FF0FFFF060E00018A613BEFD4
:103E70001FF03EEF1FF0FFFF5AEF1FF0FFFF780E1D
:103E800000018A25D96EDA6A000EDA22000EDF6E92
:103E90006C0E8A25D96EDA6A000EDA22400EDF6EC9
:103EA000600E8A25D96EDA6A000EDA22400EDF6EC5
:103EB000F0EF1FF0FFFF050E00018A6562EF1FF0B3
:103EC00065EF1FF0FFFF8CEF1FF0FFFF080E0001F2
:103ED0008A616DEF1FF070EF1FF0FFFF8CEF1FF096
:103EE000FFFF780E00018A25D96EDA6A000EDA2209
:103EF000400EDF6E6C0E8A25D96EDA6A000EDA2269
:103F0000000EDF6E600E8A25D96EDA6A000EDA22A4
:103F1000000EDF6EF0EF1FF0FFFF070E00018A6555
:103F200094EF1FF097EF1FF0FFFFBEEF1FF0FFFFB2
:103F30000A0E00018A619FEF1FF0A2EF1FF0FFFF42
:103F4000BEEF1FF0FFFF780E00018A25D96EDA6AF6
:103F5000000EDA22400EDF6E6C0E8A25D96EDA6A08
:103F6000000EDA22000EDF6E600E8A25D96EDA6A44
:103F7000000EDA22400EDF6EF0EF1FF0FFFF090E99
:103F800000018A65C6EF1FF0C9EF1FF0FFFFF0EFD9
:103F90001FF0FFFF0C0E00018A61D1EF1FF0D4EF7C
:103FA0001FF0FFFFF0EF1FF0FFFF780E00018A25E2
:103FB000D96EDA6A000EDA22400EDF6E6C0E8A25A8
:103FC000D96EDA6A000EDA22400EDF6E600E8A25A4
:103FD000D96EDA6A000EDA22000EDF6EF0EF1FF003
:103FE000FFFF00018A2B0B0E00018A65FAEF1FF01C
:103FF000FDEF1FF0FFFFCFEF1EF0FFFF1200FFFFEE
:020000040020DA
:08000000FFFFFFFFFFFFFFFF00
:020000040030CA
:04000000FF220D0EC0
:0800060080FF0FC00FE00F4066
:00000001FF
